:1007DD00410E6200410EC70060640E630000000010
:1007ED0000000000000000000000000000000000FC
:1007FD0000000000000000000000000000000000EC
:10080D0000000000000000000000000000000000DB
:10081D0000000000000000000000000000000000CB
:10082D0000000000000000000000000000000000BB
:10083D0000000000000000000000000000000000AB
:10305900E4900F07F0A3F0123B39123B3C7BFF7A57
:103069000079037F337E2B12331F900F1074FFF00A
:10307900A37437F0A37470F07BFF7A3979707F807D
:103089007E257D007C00122B0A900F1074FFF0A39F
:103099007437F0A37432F07BFF7A3979987F007E18
:1030A900C27D017C001228EE123B2D123B33123AED
:1030B9000712381D1237E67F04123B1212214B12F8
:1030C90039191233851234F3900E62E060F1E4F09D
:0830D9001235A5123B1D80E732
:07000300900E627401F0226F
:1035A500900E61E004F07006900E60E004F01237B2
:1035B500AC123946123AE11239BF900E60E0B401FF
:1035C5000AA3E0B4F4057F040236B4C3900E61E0AB
:1035D5009484900E60E064809483400C7F041236DE
:0935E500F3E4900E60F0A3F02263
:10084D0061000A920000000000000000000000009E
:10085D00000000000000000000000000000000008B
:10086D00000000000000000000000000000000007B
:10087D00000000000000000000000000000000006B
:10088D00000000000000000000000000000000005B
:10089D00000000000000000000000000000000004B
:1008AD00000000000000000000000000000000003B
:1008BD00000000000000000000000000000000002B
:1008CD00000000000000000000000000000000001B
:1008DD00000000000000000000000000000000000B
:1008ED0000000000000000000000000000000000FB
:1008FD0000000000000000000000000000000000EB
:10090D0000000000000000000000000000000000DA
:10091D0000000000000000000000000000000000CA
:10092D0000000000000000000000000000000000BA
:10093D0000000000000000000000000000000000AA
:10094D00000000006100099200000000000000009E
:10095D00000000000000000000000000000000008A
:10096D00000000000000000000000000000000007A
:10097D00000000000000000000000000000000006A
:10098D00000000000000000000000000000000005A
:10099D00000000000000000000000000000000004A
:1009AD00000000000000000000000000000000003A
:1009BD00000000000000000000000000000000002A
:1009CD00000000000000000000000000000000001A
:1009DD00000000000000000000000000000000000A
:1009ED0000000000000000000000000000000000FA
:1009FD0000000000000000000000000000000000EA
:100A0D0000000000000000000000000000000000D9
:100A1D0000000000000000000000000000000000C9
:100A2D0000000000000000000000000000000000B9
:100A3D0000000000000000000000000000000000A9
:080A4D000000000000000000A1
:10338500E4900F09F07B01900F0D04F0A3740FF08A
:10339500A37409F07A0A799212002EEF60407B013E
:1033A5007A0A7992900F09E0FD123B367B017A0A81
:1033B5007992900F09E0FD7C00122C4EEF601F9072
:1033C5000A92E064017017900F09E0FDC39406743A
:0E33D50080948040097B017A0A7992120CA242
:0133E30022C7
:0E0CA200900F0AEBF0A3EAF0A3E9F0A3EDF047
:100CB000E4A3F0A3F0A3F0A3F0900F0AE0FBA3E0FD
:100CC000FAA3E0F9900001120573900F0EF0900066
:100CD00002120573FE900003120573FDEDFF900FE5
:100CE00010EEF0A3EFF0900F0EE064036003020D2E
:100CF000DD900F10E0B4011FA3E0B4001A900F16AE
:100D00007401F0A3740FF0A3740FF07B017A0979DA
:100D100092121E5E0210AA900F10E0B4021FA3E010
:100D2000B4001A900F167401F0A3740FF0A3740F9F
:100D3000F07B017A097992121A5D0210AA900F10C5
:100D4000E0B4031FA3E0B4001A900F167401F0A3DF
:100D5000740FF0A3740FF07B017A097992121CAF23
:100D60000210AA900F10E0FEA3E0FFC39440EE949F
:0C0D7000064030D3EF944DEE940650275F
:100D7C00900F10A3E024C0FFA3F0900F167401F0A5
:100D8C00A3740FF0A3740FF0A3EFF07B017A097931
:040D9C009212268CFD
:100DA0000210AA900F10E064107002A3E06003022A
:100DB00010AA7B01900F1604F0A37409F0A374929B
:100DC000F0A3EBF0A3740FF0A3740FF0900F0AE000
:100DD000FBA3E0FAA3E0F91225A50210AA900F0EDA
:100DE000E0641060030210AA900F10E0B4073BA368
:100DF000E0B40136900F0DE0640B60030210AA7B93
:100E000001900F1604F0A37409F0A37492F0A3EB01
:100E1000F0A3740FF0A3740FF0900F0AE0FBA3E0AF
:100E2000FAA3E0F912282C0210AA900F10E0FEA3FA
:100E3000E0FFC3EE9405403BD3EF940DEE940550D4
:010E4000327F
:100E4100E4A3F0900F10A3E0A3F0900F167401F04B
:100E5100A3740FF0A3740FF0A3EEF0A3EFF07B01E6
:0F0E61007A09799212343F900F12E0FF122EADF2
:100E70000210AA900F10E0FEA3E0FFC3EE9406401C
:0A0E800038D3EF940DEE9406502FC6
:100E8A00900F10A3E0A3F0900F167401F0A3740F53
:100E9A00F0A3740FF0A3EEF0A3EFF07B017A0979C7
:0C0EAA0092123499900F12E0FF123AA649
:100EB6000210AA900F10E0FEA3E0FFC39440EE9448
:0C0EC60005404FD3EF9443EE94055046D6
:100ED200E4A3F0900F0DE0640B60030210AA900FE0
:100EE20010A3E024C0FFA3F0900F167401F0A374C6
:100EF20009F0A37492F0A37401F0A3740FF0A37429
:100F02000FF0A3EFF0900F0AE0FBA3E0FAA3E0F9E1
:030F120012239C0B
:100F15000210AA900F10E0FEA3E0FFC39444EE94E4
:0C0F250005404FD3EF944DEE940550466C
:100F3100E4A3F0900F0DE0640B60030210AA900F80
:100F410010A3E024BCFFA3F0900F167401F0A3746A
:100F510009F0A37492F0A37401F0A3740FF0A374C9
:100F61000FF0A3EFF0900F0AE0FBA3E0FAA3E0F982
:030F71001224A7A0
:100F74000210AA900F10E0FEA3E0FFC3EE94044019
:0A0F84004CD3EF940DEE940450439B
:100F8E00E4A3F0900F0DE0641160030210AA900F1D
:100F9E0010A3E0A3F0900F167401F0A37409F0A350
:100FAE007492F0A37401F0A3740FF0A3740FF0A366
:100FBE00EFF0900F0AE0FBA3E0FAA3E0F912227E15
:100FCE000210AA900F10E0B4073BA3E0B4023690D3
:100FDE000F0DE0640B60030210AA7B01900F160444
:100FEE00F0A37409F0A37492F0A3EBF0A3740FF0C6
:100FFE00A3740FF0900F0AE0FBA3E0FAA3E0F9123E
:10100E0029A80210AA900F10E0FEA3E0FFC394409F
:0E101E00EE9404404BD3EF9449EE94045042FC
:10102C00E4A3F0900F0DE0640B7073900F10A3E02D
:10103C0024C0FFA3F0900F167401F0A37409F0A361
:10104C007492F0A37401F0A3740FF0A3740FF0A3C7
:10105C00EFF0900F0AE0FBA3E0FAA3E0F9121FD91E
:10106C00803C900F10E0B40735A3E0B40030900F33
:10107C000DE0640B70287B01900F1604F0A374092B
:10108C00F0A37492F0A3EBF0A3740FF0A3740FF021
:10109C00900F0AE0FBA3E0FAA3E0F9122A5A900F92
:1010AC000FE0D3940074809480401FE02402F07B06
:1010BC00017A097992E0FD7C00122F3E7B017A09BE
:0A10CC007992900F0FE0FD1230E161
:0110D60022F7
:0B1E5E00900F13EBF0A3EAF0A3E9F0F3
:101E6900E4900F19F0A3F0900F13E0FBA3E0FAA39D
:101E7900E0F9900F1AE0FF04F08F82758300740176
:101E89001205E5900F1AE0FF04F08F827583007444
:101E9900031205E5900F1AE004F0E0FF04F08F82C9
:101EA90075830074011205E5900F1AE0FF04F08FA5
:101EB90082758300740A1205E5E4900F19F0900FFA
:101EC90019E0FFFD3395E0FCC3ED940EEC648094BA
:101ED900804003021FB07B017A0F791B122E1690E6
:101EE9000F13E0FBA3E0FAA3E0F9900F1AE0FF0457
:101EF900F08F82758300E41205E5900F19E0FF1257
:101F09003A8C900F13E0FBA3E0FAA3E0F9900F1AC3
:101F1900E0FE04F08E82758300EF1205E5900F1B39
:101F2900A3E02430FF900F1AE0FE04F08E8275833F
:101F390000EF1205E5900F1DE0FF900F1AE0FE0477
:101F4900F08E82758300EF1205E5900F1EE0FF9079
:101F59000F1AE0FE04F08E82758300EF1205E590FA
:101F69000F1FE0FF900F1AE0FE04F08E82758300C8
:101F7900EF1205E5900F20E0FF900F1AE0FE04F044
:101F89008E82758300EF1205E5900F21E0FF900F17
:101F99001AE0FE04F08E82758300EF1205E5900FBA
:101FA90019E004F0021EC7900F1AE0FF24FDFE900D
:101FB9000F13E0FBA3E0FAA3E0F9900002EE12058B
:101FC900E5900F16E0FBA3E0FAA3E0F9EF0205D3D1
:0B1A5D00900F13EBF0A3EAF0A3E9F0F8
:101A6800E4900F19F0A31207A600000000E4FDFCA3
:101A7800900F13E0FBA3E0FAA3E0F9900F19E0FF41
:101A880004F08F8275830074011205E5900F19E048
:101A9800FF04F08F8275830074031205E5900F1917
:101AA800E004F0E0FF04F08F82758300E41205E59E
:101AB800123852900F13E0FBA3E0FAA3E0F9900F5D
:101AC80019E0FE04F08E82758300EF1205E5E4FF4D
:101AD800122CE7900F1A12079AE4FFFE7D7A7C44D5
:101AE800900F1AE0F8A3E0F9A3E0FAA3E0FB1201D3
:101AF800861203E3AC06AD07ECFF900F13E0FBA3DF
:101B0800E0FAA3E0F9900F19E0FE04F08E827583E5
:101B180000EF1205E5AF05900F19E0FE04F08E8284
:101B2800758300EF1205E57F04122CE7900F1A1257
:101B3800079AE4FFFE7D7A7C44900F1AE0F8A3E050
:101B4800F9A3E0FAA3E0FB1201861203E3AC06ADA9
:101B580007ECFF900F13E0FBA3E0FAA3E0F9900F66
:101B680019E0FE04F08E82758300EF1205E5AF05DB
:101B7800900F19E0FE04F08E82758300EF1205E5E0
:101B88007F03122CE7900F1A12079AE4FFFE7D7A62
:101B98007C44900F1AE0F8A3E0F9A3E0FAA3E0FB75
:101BA8001201861203E3AC06AD07ECFF900F13E0B9
:101BB800FBA3E0FAA3E0F9900F19E0FE04F08E828F
:101BC800758300EF1205E5AF05900F19E0FE04F0EC
:101BD8008E82758300EF1205E57F01122CE7900FC6
:101BE8001A12079AE4FFFE7DC87C42900F1AE0F8AB
:101BF800A3E0F9A3E0FAA3E0FB1201861203E3AC29
:101C080006AD07ECFF900F13E0FBA3E0FAA3E0F9A1
:101C1800900F19E0FE04F08E82758300EF1205E53F
:101C2800AF05900F19E0FE04F08E82758300EF1265
:101C380005E57F02122CE7900F1A12079AE4FFFEBF
:101C48007DC87C42900F1AE0F8A3E0F9A3E0FAA35C
:101C5800E0FB1201861203E3AC06AD07ECFF900F20
:101C680013E0FBA3E0FAA3E0F9900F19E0FE04F0FB
:101C78008E82758300EF1205E5AF05900F19E0FE1F
:101C880004F08E82758300EF1205E5900F19E0FFCE
:101C980024FD9000021205E5900F16E0FBA3E0FA80
:071CA800A3E0F9EF0205D3F0
:0B1CAF00900F13EBF0A3EAF0A3E9F0A4
:101CBA00E4900F19F0FDFC900F13E0FBA3E0FAA3E8
:101CCA00E0F9900F19E0FF04F08F82758300740128
:101CDA001205E5900F19E0FF04F08F8275830074F6
:101CEA00031205E5900F19E004F0E4FF123A6CAC18
:101CFA0006AD07ECFF900F13E0FBA3E0FAA3E0F9AF
:101D0A00900F19E0FE04F08E82758300EF1205E54C
:101D1A00AF05900F19E0FE04F08E82758300EF1272
:101D2A0005E57F04123A6CAC06AD07ECFF900F1381
:101D3A00E0FBA3E0FAA3E0F9900F19E0FE04F08EAD
:101D4A0082758300EF1205E5AF05900F19E0FE04D6
:101D5A00F08E82758300EF1205E57F03123A6CACB0
:101D6A0006AD07ECFF900F13E0FBA3E0FAA3E0F93E
:101D7A00900F19E0FE04F08E82758300EF1205E5DC
:101D8A00AF05900F19E0FE04F08E82758300EF1202
:101D9A0005E57F01123A6CAC06AD07ECFF900F1314
:101DAA00E0FBA3E0FAA3E0F9900F19E0FE04F08E3D
:101DBA0082758300EF1205E5AF05900F19E0FE0466
:101DCA00F08E82758300EF1205E57F02123A6CAC41
:101DDA0006AD07ECFF900F13E0FBA3E0FAA3E0F9CE
:101DEA00900F19E0FE04F08E82758300EF1205E56C
:101DFA00AF05900F19E0FE04F08E82758300EF1292
:101E0A0005E5123B09AC06AD07ECFF900F13E0FBAA
:101E1A00A3E0FAA3E0F9900F19E0FE04F08E8275B0
:101E2A008300EF1205E5AF05900F19E0FE04F08E6E
:101E3A0082758300EF1205E5900F19E0FF24FD90EB
:101E4A0000021205E5900F16E0FBA3E0FAA3E0F901
:041E5A00EF0205D3BB
:0B268C00900F13EBF0A3EAF0A3E9F0BD
:10269700E4900F1AF0900F13E0FBA3E0FAA3E0F920
:1026A700900F1AE0FF04F08F827583007401120502
:1026B700E5900F1AE0FF04F08F8275830074031210
:1026C70005E5900F1AE004F0900F19E0FF7B017AFF
:1026D7000F791B12275C900F1BE0FCA3E0FDECFFBA
:1026E700900F13E0FBA3E0FAA3E0F9900F1AE0FEC6
:1026F70004F08E82758300EF1205E5AF05900F1A7F
:10270700E0FE04F08E82758300EF1205E5900F1D41
:10271700E0FCA3E0FDECFF900F1AE0FE04F08E82D0
:10272700758300EF1205E5AF05900F1AE0FE04F080
:102737008E82758300EF1205E5900F1AE0FF24FDE6
:102747009000021205E5900F16E0FBA3E0FAA3E064
:05275700F9EF0205D3BB
:0B25A500900F13EBF0A3EAF0A3E9F0A5
:1025B000E4900F1CF0F9A3C9F0A3F0A3E9F0E4A3A1
:1025C000F0A3F0A3F0900F16E0FBA3E0FAA3E0F96C
:1025D000900F20E0FF04F08F8275830074011205D4
:1025E000E5900F20E0FF04F08F82758300740312E2
:1025F00005E5900F20E004F0900F13E0FBA3E0FA54
:10260000A3E0F9900005120573FFC3942874809429
:10261000805053EF75F080A4FFAEF0900F21EEF0E4
:10262000A3EFF0900F16E0FBA3E0FAA3E02403F978
:10263000E43AFA900F1DEBF0A3EAF0A3E9F0900F53
:1026400028E4F0A37480F0123632900F16E0FBA35A
:10265000E0FAA3E0F990000274801205E5900F20E3
:10266000E02480F08012900F16E0FBA3E0FAA3E0D4
:10267000F9900002E41205E5900F20E0FF900F1999
:0C268000E0FBA3E0FAA3E0F9EF0205D3B1
:0B282C00900F13EBF0A3EAF0A3E9F01B
:10283700E4900F1CF0900F16E0FBA3E0FAA3E0F979
:10284700900F1CE0FF04F08F82758300740112055E
:10285700E5900F1CE0FF04F08F827583007410125F
:1028670005E5900F1CE0FF04F08F82758300740765
:102877001205E5900F1CE0FF04F08F82758300744A
:10288700011205E5900F1CE0FF04F08F82758300AD
:10289700E41205E5900F1CE0FF04F08F82758300BA
:1028A70074011205E5900F13E0FBA3E0FAA3E0F92A
:1028B700900007120573FE900008120573FDEDFFE7
:1028C700AC06E41203AAE4FBFA79C8784212028F35
:1028D7001238EA900F1CE0FF900F19E0FBA3E0FA13
:0728E700A3E0F9EF0205D3A5
:0B29A800900F13EBF0A3EAF0A3E9F09E
:1029B300E4900F1CF0900F16E0FBA3E0FAA3E0F9FC
:1029C300900F1CE0FF04F08F8275830074011205E1
:1029D300E5900F1CE0FF04F08F82758300741012E2
:1029E30005E5900F1CE0FF04F08F827583007407E8
:1029F3001205E5900F1CE0FF04F08F8275830074CD
:102A0300021205E5900F1CE0FF04F08F827583002E
:102A1300E41205E5900F1CE0FF04F08F827583003C
:102A230074011205E5900F13E0FBA3E0FAA3E0F9AC
:102A3300900007120573FE900008120573FDEDFF69
:102A43001231DA900F1CE0FF900F19E0FBA3E0FABC
:072A5300A3E0F9EF0205D337
:0B343F00900F13EBF0A3EAF0A3E9F0FC
:10344A00900F13E0FBA3E0FAA3E0F99000007401E7
:10345A001205E590000174101205E5900F19E0902D
:10346A0000021205E5900F19A3E09000031205E58A
:10347A00900004E41205E590000574011205E59038
:0F348A000F16E0FBA3E0FAA3E0F974060205D3E6
:0B239C00900F13EBF0A3EAF0A3E9F0B0
:1023A700E4900F1DF0900F1CE0C394047480948098
:1023B70040030224A6900F16E0FBA3E0FAA3E0F97E
:1023C700900F1DE0FF04F08F8275830074011205E2
:1023D700E5900F1DE0FF04F08F82758300741012E3
:1023E70005E5900F1CE02440FDE43405FCFFA3E065
:1023F700FE04F08E82758300EF1205E5AF05900F9E
:102407001DE0FE04F08E82758300EF1205E5900F44
:102417001DE0FF04F08F82758300E41205E5900F3D
:102427001DE0FF04F08F8275830074011205E590AB
:102437000F13E0FBA3E0FAA3E0F99000071205737E
:10244700FE900008120573FDEDFF900F1EEEF0A33E
:10245700EFF0900F1CE0C394037480948050047FC6
:102467000180027F02123A6C900F20EEF0A3EFF08A
:1024770078237C0F7D017B017A0F791E7E007F0414
:10248700120534900F1CE0FF122BB2900F1DE0FFD6
:0F249700900F19E0FBA3E0FAA3E0F9EF1205D3D1
:0124A6002213
:0B24A700900F13EBF0A3EAF0A3E9F0A4
:1024B200E4900F1DF0900F1CE0C3940A7480948086
:1024C20040030225A4900F16E0FBA3E0FAA3E0F973
:1024D200900F1DE0FF04F08F8275830074011205D6
:1024E200E5900F1DE0FF04F08F82758300741012D7
:1024F20005E5900F1CE02444FDE43405FCFFA3E055
:10250200FE04F08E82758300EF1205E5AF05900F91
:102512001DE0FE04F08E82758300EF1205E5900F38
:102522001DE0FF04F08F82758300E41205E5900F31
:102532001DE0FF04F08F8275830074011205E5909F
:102542000F13E0FBA3E0FAA3E0F990000712057372
:10255200FE900008120573FDEDFF900F20EEF0A330
:10256200EFF0123B09900F1EEEF0A3EFF0900F1C5C
:10257200E02404FFC00778237C0F7D017B017A0FE2
:10258200791E7E007F04120534D007122BB2900F01
:102592001DE0FF900F19E0FBA3E0FAA3E0F9EF12B0
:0225A20005D35F
:0125A4002214
:0B349900900F13EBF0A3EAF0A3E9F0A2
:1034A400900F13E0FBA3E0FAA3E0F990000074018D
:1034B4001205E590000174101205E5900F19E090D3
:1034C40000021205E5900F19A3E09000031205E530
:1034D400900004E41205E590000574011205E590DE
:0F34E4000F16E0FBA3E0FAA3E0F974060205D38C
:0B227E00900F13EBF0A3EAF0A3E9F0CF
:10228900E4900F1DF0900F1CE0C3940E74809480AD
:10229900400302239B900F16E0FBA3E0FAA3E0F9A9
:1022A900900F1DE0FF04F08F827583007401120501
:1022B900E5900F1DE0FF04F08F8275830074101202
:1022C90005E5900F1CE02400FDE43404FFA3E0FEC3
:1022D90004F08E82758300EF1205E5AF05900F1D9E
:1022E900E0FE04F08E82758300EF1205E5900F1D64
:1022F900E0FF04F08F82758300E41205E5900F1D5D
:10230900E0FF04F08F8275830074011205E5900FD8
:1023190013E0FBA3E0FAA3E0F9900008120573FEAD
:10232900900009120573FDEDFF900F1EEEF0A3EF6B
:10233900F090000A120573900F20F090000B12051F
:1023490073900F21F090000C120573900F22F090FA
:10235900000D120573900F23F090000E1205739073
:102369000F24F078267C0F7D017B017A0F791E7E80
:10237900007F07120534900F1CE0FF1217D3900F4E
:102389001DE0FF900F19E0FBA3E0FAA3E0F9EF12BB
:0223990005D36A
:01239B00221F
:0B1FD900900F13EBF0A3EAF0A3E9F077
:101FE400E4900F1DF0A3F0FEA3F0A3F0900F1CE00B
:101FF400C3940A74809480400302214A900F16E02F
:10200400FBA3E0FAA3E0F9900F1EE0FF04F08F8237
:1020140075830074011205E5900F16E0FBA3E0FA46
:10202400A3E0F9900F1EE0FF04F08F827583007423
:10203400101205E5900F1CE02440FDEE3404FCFF73
:10204400900F16E0FBA3E0FAA3E0F9900F1EE0FE68
:1020540004F08E82758300EF1205E5AF05900F162C
:10206400E0FBA3E0FAA3E0F9900F1EE0FE04F08E7B
:1020740082758300EF1205E5900F16E0FBA3E0FAEA
:10208400A3E0F9900F1EE0FF04F08F82758300E453
:102094001205E5900F16E0FBA3E0FAA3E0F9900F18
:1020A4001EE0FF04F08F8275830074011205E59031
:1020B4000F13E0FBA3E0FAA3E0F990000712057305
:1020C400FE900008120573FDEDFF900F1FEEF0A3C4
:1020D400EFF0900F1CE0FF123AFD900F1CE0240477
:1020E400FF900F1FE0FCA3E0FD7B017A0F791D1226
:1020F40010D71203E3900F1DE070051231DA80321D
:10210400900F1DE02480FF900F16E0FBA3E0FAA3DC
:10211400E0F9900001EF1205A0900F1FE0FCA3E08E
:10212400FDE41203AAE4FBFA79C8784212028F1282
:1021340038EA900F1EE0FF900F19E0FBA3E0FAA32A
:06214400E0F9EF1205D3E3
:01214A002272
:0B2A5A00900F13EBF0A3EAF0A3E9F0EB
:102A6500E4900F1CF0900F16E0FBA3E0FAA3E0F949
:102A7500900F1CE0FF04F08F82758300740112052E
:102A8500E5900F1CE0FF04F08F827583007410122F
:102A950005E5900F1CE0FF04F08F82758300740735
:102AA5001205E5900F1CE0FF04F08F82758300E4AA
:102AB5001205E5900F1CE0FF04F08F82758300E49A
:102AC5001205E5900F1CE0FF04F08F8275830074FA
:102AD500011205E5900F13E0FBA3E0FAA3E0F990DE
:102AE50000081205737F0960051236F3800312365C
:102AF500B4900F1CE0FF900F19E0FBA3E0FAA3E0F0
:052B0500F9EF0205D309
:1034F300E4900F09F0123852900F09EFF0123B09D4
:10350300D3EF9400EE94007F0540051236B4800398
:103513001236F3900F09E07F0630E1051236B480CE
:10352300031236F3900F09E054FDF07F0730E205F4
:103533001236B480031236F3900F09E054FBF07F88
:093543000860030236B41236F3ED
:01354C00225C
:0F3AD1007D517C04ED1D70011C144C70F7DFF16A
:013AE00022C3
:1037E600E4900F09F0F0900F09E0FF3395E0FEC377
:1037F600EF940AEE64809480501C7F041236B47FE6
:1038060096123AD17F041236F37F32123AD1900FD4
:0638160009E004F080D07F
:01381C002289
:10000E00E490078CF0A3F0A3F090088FF0A3F0908B
:04001E000991F02232
:05002600E4FF0236F3C7
:053B1800E4FF0236B4D9
:033B2A00023B3F1C
:1039700090078DE004F0A3E0FE90078DE0FDC39E6C
:10398000500F748F2DF582E43407F583E0FF023B7E
:073990002A90078C7402F07D
:01399700220D
:033B2D0002000E85
:0B30E100900F13EBF0A3EAF0A3E9F05E
:1030EC00E4A3F0E94A7002FF2290078CE060037FB2
:1030FC000022EDD39400748094814007E4900F1665
:10310C00F08005900F16EDF0120026900F13E0F9E9
:10311C00A3E0FAA3E0900F1AC9F0A3EAF0A3E9F038
:10312C00900F16E0FF900F1DE4F0A3EFF07B017AF7
:10313C0007798F1233E4E490078DF0900F16E0902E
:10314C00078EF090078C7401F090078FE0FF123B14
:03315C002A7F01C6
:01315F00224D
:1037AC0090078CE064037021900991E004F0E0C371
:1037BC00940A74809480401190088FE0A3F0E490F8
:1037CC00088FF090078C7404F090078CE064027002
:0A37DC0008123B18E490078CF0225D
:1037700090088FE02491F582E43408F583EFF0900F
:10378000088FE004F0E4900991F090088FE0FFC307
:1037900074809481400FA3EFF0E490088FF09007BD
:0B37A0008C7404F02290078C7403F07E
:0137AB0022FB
:0B002E00900F0AEBF0A3EAF0A3E9F04A
:10003900E4FFE94A70012290078CE0640460037FC1
:100049000022900890E0FEFF900F0DE0FBA3E0FA7C
:10005900A3E0F9EE1205D3900F1A7401F0A3740806
:10006900F0A37491F0A3E4F0A3EFF0900F0AE0FB82
:10007900A3E0FAA3E0F91233E4E490078CF07F01DE
:010089002254
:0B33E400900F17EBF0A3EAF0A3E9F054
:1033EF00E4FFFED3900F1EE09FEE6480F8900F1D58
:1033FF00E06480984039900F1AE0FBA3E0FAA3E055
:10340F00F912055AFD900F17E0FBA3E0FAA3E0F9BC
:10341F00ED1205D3900F18E475F00112065C900FB2
:0F342F001BE475F00112065C0FBF00010E80B4A4
:01343E00226B
:103ABD00E4900D92F0A3F0A3F0900DF9F0A3F09027
:043ACD000E5FF02276
:033B3000023B4213
:10399800900D93E004F0A3E0FE900D93E0FDC39E2C
:1039A800500F74952DF582E4340DF583E0FF023B4A
:0639B80030E4900D92F0D6
:0139BE0022E6
:033B3300023ABD96
:0B316000900F0AEBF0A3EAF0A3E9F0E7
:10316B00E4A3F0E94A7002FF22900D92E060037F26
:10317B000022EDD3946474809480900F0D400574FD
:10318B0064F08002EDF0900F0AE0F9A3E0FAA3E0FF
:10319B00900F1AC9F0A3EAF0A3E9F0900F0DE0FF2E
:1031AB00900F1DE4F0A3EFF07B017A0D79951233AC
:1031BB00E4E4900D93F0900F0DE0900D94F0900DD2
:0E31CB00927401F0900D95E0FF123B307F01F1
:0131D90022D3
:10394600900D92E064037021900E5FE004F0E0C3F6
:10395600940A748094804011900DF9E0A3F0E490ED
:0A3966000DF9F0900D927404F022A8
:10373200900DF9E024FBF582E4340DF583EFF0906F
:103742000DF9E004F0E4900E5FF0900DF9E0FFC394
:10375200946474809480400FA3EFF0E4900DF9F02C
:0D376200900D927404F022900D927403F00B
:01376F002237
:0A0A5500420F590000420F57000045
:1031DA00EE540FFE900F59F0A3EFF07802C333CEEE
:1031EA0033CED8F9FF900F26EEF0A3EFF07F02124C
:1031FA0036B47F021236F3E4900F25F0900F25E0E3
:10320A00C394107480948050317F011236B4900FA9
:10321A0026E0A37F0330E7051236B480031236F3A3
:10322A007F011236F3900F27E025E0F0900F26E099
:0F323A0033F0900F25E004F080C27F020236B41B
:0638EA00900F2112079A65
:1038F000E4FBFA79C87843900F21E0FCA3E0FDA334
:10390000E0FEA3E0FF12028F7B007AF0797F78451A
:093910001201861203E30231DA10
:093B0900900F59E0FEA3E0FF2239
:1039BF00900F58E004F07006900F57E004F0C3909A
:1039CF000F58E09410900F57E0648094A74004E4E0
:0439DF00F0A3F0223F
:100A5F0062000B920000C0C1C1810140C30103C0FD
:100A6F000280C241C60106C00780C7410500C5C14B
:100A7F00C4810440CC010CC00D80CD410F00CFC10B
:100A8F00CE810E400A00CAC1CB810B40C90109C0FB
:100A9F000880C841D80118C01980D9411B00DBC19B
:100AAF00DA811A401E00DEC1DF811F40DD011DC04B
:100ABF001C80DC411400D4C1D5811540D70117C06B
:100ACF001680D641D20112C01380D3411100D1C17B
:100ADF00D0811040F00130C03180F1413300F3C1BB
:100AEF00F28132403600F6C1F7813740F50135C04B
:100AFF003480F4413C00FCC1FD813D40FF013FC00B
:100B0F003E80FE41FA013AC03B80FB413900F9C1FA
:100B1F00F88138402800E8C1E9812940EB012BC05A
:100B2F002A80EA41EE012EC02F80EF412D00EDC14A
:100B3F00EC812C40E40124C02580E5412700E7C16A
:100B4F00E68126402200E2C1E3812340E10121C07A
:100B5F002080E041A00160C06180A1416300A3C17A
:100B6F00A28162406600A6C1A7816740A50165C04A
:100B7F006480A4416C00ACC1AD816D40AF016FC00A
:100B8F006E80AE41AA016AC06B80AB416900A9C1FA
:100B9F00A88168407800B8C1B9817940BB017BC09A
:100BAF007A80BA41BE017EC07F80BF417D00BDC14A
:100BBF00BC817C40B40174C07580B5417700B7C16A
:100BCF00B68176407200B2C1B3817340B10171C07A
:100BDF007080B041500090C191815140930153C03A
:100BEF0052809241960156C057809741550095C14A
:100BFF00948154409C015CC05D809D415F009FC10A
:100C0F009E815E405A009AC19B815B40990159C0F9
:100C1F0058809841880148C0498089414B008BC159
:100C2F008A814A404E008EC18F814F408D014DC049
:100C3F004C808C41440084C185814540870147C069
:100C4F0046808641820142C043808341410081C179
:040C5F008081404010
:072D7F0024FEFDE034FFFC1F
:102D8600900F39ECF0A3EDF0900F36EBF0A3EAF0DC
:032D9600A3E9F0BE
:102D9900E4900F3BF074FFA3F0A3F0E94A7003FE3F
:102DA900FF22E4900F3BF0900F3BE0FFD3900F3AE6
:102DB900E09F900F39E09400404A900F36E0FBA362
:102DC900E0FAA3E0F9900F3BE0F582758300120564
:102DD90073FF900F3CE0FCA3E0FDED6F25E0FFE4FD
:102DE90033FE74922FF582740B3EF583ECFFE0FEFF
:102DF900A3E06FFF900F3CEEF0A3EFF0900F3BE0E4
:0C2E090004F080A3900F3CE0FEA3E0FF6B
:012E1500229A
:102C4E00900F0FECF0A3EDF0900F0CEBF0A3EAF069
:032C5E00A3E9F0F7
:102C6100E4900F11F0A3F0FFFEE94A700122C39036
:102C71000F10E09403900F0FE0940050037F0022A7
:102C8100900F0CE0FBA3E0FAA3E0F9900F10E090A5
:102C91000F0F122D7F900F11EEF0A3EFF0900F0C9C
:102CA100E0FBA3E0FAA3E0F9900F10E024FFFF900E
:102CB1000F0FE034FF8F82F583120573FE900F1022
:102CC100E024FEFD900F0FE034FF8D82F5831205A5
:102CD10073FDEDFF900F11E0B50608A3E0B5070302
:052CE1007F01227F00CD
:012CE60022CB
:102F3E00900F2FEBF0A3EAF0A3E9F0A3ECF0A3EDD2
:012F4E00F092
:102F4F00E4A3F0A3F0C3ED9404EC940050037F00CE
:102F5F0022900F2FA3E0FAA3E04A7002FF22900FF6
:102F6F002FE0FBA3E0FAA3E0F9900F33E0900F32CC
:102F7F00122D7F900F34EEF0A3EFF0900F34E0FF9F
:102F8F00900F2FE0FBA3E0FAA3E0F9900F33E024BA
:102F9F00FFFD900F32E034FF8D82F583EF1205E5D0
:102FAF00900F34A3E0FF900F33E024FEFD900F321B
:0D2FBF00E034FF8D82F583EF1205E57F0100
:012FCC0022E2
:100C6300410EE35A420EDC0000450EDE0001020392
:100C730000540EC842D2000043C8000043C800001D
:080C83004120000041E2AAAB90
:10381D00E4FB900EE5F0EBFF3395E0FEC3EF94056E
:10382D00EE64809480501DEF7802C333CE33CED832
:10383D00F924F3F582740E3EF5831207A6000000FD
:04384D00000B80D21A
:013851002254
:10149A00E4900F09F0A3F0A3F0A3F0A3F0A3F0A344
:1014AA001207A600000000900F131207A600000002
:1014BA00007F0B123886EF7007900EE504F0800566
:1014CA00E4900EE5F0E4900F09F0900F09E0FF3385
:1014DA0095E0FEC3EF9405EE648094804003021702
:1014EA0024E0FD3395E0FC74DE2DF582740E3CF5A4
:1014FA0083E0F9900F0BF0EF3395E0FEEF7802C32B
:10150A0033CE33CED8F924C8F582740E3EF583E083
:10151A00FCA3E0FDA3E0FEA3E0FF900F1312079ADD
:10152A00AF01123A4B900F0DEEF0A3EFF0900F0DB2
:10153A00E0FCA3E0FDE41203AAE4FBFA7980784513
:10154A0012028F900F0F12079A900F0DE0FCA3E082
:10155A00FD900F09E0FB3395E0FAEB25E0FFEA3353
:10156A00FE74E92FF582740E3EF583ECF0A3EDF0DC
:09157A00EB64014A600302162231
:10158300900F171207A6000000001239E3900F0C0A
:10159300EFF0A3E0FCA3E0FD7B017A0F790A1210C0
:1015A300D7900F1712079A900F0AE07035FBFA795C
:1015B300C87842900F17E0FCA3E0FDA3E0FEA3E090
:1015C300FF12028FC004C005C006C007900F09E0D8
:1015D300FF3395E0FEEF7802C333CE33CED8F90262
:1015E3001707900F13E0FCA3E0FDA3E0FEA3E0FFC9
:1015F300900F0FE0F8A3E0F9A3E0FAA3E0FB1201D8
:1016030086C004C005C006C007900F09E0FF3395EC
:0C161300E0FEEF7802C333CE33CED8F9EE
:10161F00021707900F09E0FF3395E0FEEF64024ECB
:05162F0060030216CD6E
:10163400900F171207A600000000900F0DE0FCA306
:10164400E0FD7B017A0F790A7F031210D7900F1700
:1016540012079A900F0AE07034FBFA79C878429026
:101664000F17E0FCA3E0FDA3E0FEA3E0FF12028F4E
:10167400C004C005C006C007900F09E0FF3395E021
:10168400FEEF7802C333CE33CED8F98076900F13B1
:10169400E0FCA3E0FDA3E0FEA3E0FF900F0FE0F861
:1016A400A3E0F9A3E0FAA3E0FB120186C004C0059D
:1016B400C006C007900F09E0FF3395E0FEEF780203
:0716C400C333CE33CED8F989
:1016CB00803A900F13E0FCA3E0FDA3E0FEA3E0FF44
:1016DB00900F0FE0F8A3E0F9A3E0FAA3E0FB1201EF
:1016EB0086C004C005C006C007900F09E0FF339504
:1016FB00E0FEEF7802C333CE33CED8F924F3F58274
:10170B00740E3EF583D007D006D005D00412079A8D
:10171B00900F09E004F00214D4E4FFFE7D207C421C
:10172B00900EF3E0F8A3E0F9A3E0FAA3E0FB1203B9
:10173B002C5008900EE47401F08005E4900EE4F058
:10174B007F9A7E997D997C3E900F03E0F8A3E0F998
:10175B00A3E0FAA3E0FB12032C5008900EE67401F1
:10176B00F08005E4900EE6F07FCD7ECC7DCC7C3D09
:10177B00900EFFE0F8A3E0F9A3E0FAA3E0FB12035D
:10178B002C5008900EE77401F08005E4900EE7F002
:10179B00E4FFFE7D207C41900EFBE0F8A3E0F9A373
:1017AB00E0FAA3E0FB120186900EF7E0F8A3E0F954
:1017BB00A3E0FAA3E0FB12032C5007900EE8740190
:0717CB00F022E4900EE8F0AB
:0117D20022F4
:0F3AE100900EDDE004F07006900EDCE004F022A1
:10391900900EDCE0FEA3E0FF7C007D64120607ED5B
:103929004C700312149A900EDCE0FEA3E0FF7C03B6
:0D3939007DE8120607ED4C700312000A2213
:103A6C00EFC39405748094804004E4FEFF22EF259C
:103A7C00E024E9F582E4340EF583E0FEA3E0FF22B6
:102CE700900F1EEFF0FB7A00C39405748094804028
:102CF700028062EB64014A702C900F1EE025E025EC
:102D0700E024F3F582E4340EF583E0FCA3E0FDA3B1
:102D1700E0FEA3E0FFE4FBFA79A0784012032C6001
:102D27003A40388030900F1EE0FF6402702DEF2587
:102D3700E025E024F3F582E4340EF583E0FCA3E01C
:102D4700FDA3E0FEA3E0FFE4FBFA7940784012031D
:102D57002C60084006E4FFFEFDFC22900F1EE025D4
:102D6700E025E024F3F582E4340EF583E0FCA3E0EC
:082D7700FDA3E0FEA3E0FF2232
:10385200E4FF900EE4E060037402FF900EE5E06086
:1038620004EF4404FF900EE6E06004EF4408FF908A
:103872000EE7E06004EF4410FF900EE8E06004EF12
:033882004420FFE0
:013885002220
:0C3AFD00EF75F005A4244B900EE3F022BE
:1039E300900EE3E0FD7C00C3945A748094805003EE
:1039F3007F0022C3ED946EEC6480948050037F01BA
:043A0300227F0222FA
:033B3600023160F9
:01000A0022D3
:103A8C00EFC3940E7480948040037F002274002F47
:0A3A9C00F582E43400F583E0FF2218
:102E1600EFC3940E7480948040037F002275F08087
:102E2600EFA4248DF582E5F03400F583E0FDA3E000
:102E3600CD8DF012067275F080EFA4248FF582E531
:102E4600F03400F583E09000021205E575F080EF9E
:102E5600A42490F582E5F03400F583E09000031297
:102E660005E575F080EFA42491F582E5F03400F5D0
:102E760083E09000041205E575F080EFA42492F536
:102E860082E5F03400F583E09000051205E575F063
:102E960080EFA42493F582E5F03400F583E09000FA
:072EA600061205E57F012281
:022EAD00AD076F
:102EAF00E4FC900F13F0A3F0EDC3940E74809480A4
:102EBF00507C741C2DF582E43400F583E4F0900F00
:102ECF0013F0A37414F0ECFF3395E0FED3900F14BE
:102EDF00E09FEE6480F8900F13E0648098404FEC11
:102EEF003395E0FEEF7802C333CE33CED8F9FF75BA
:102EFF00F080EDA4249EF582E5F03400F583E582A1
:102F0F002FF582E5833EF58374FFF0A3F075F08013
:102F1F00EDA424A0F582E5F03400F583E5822FF5CA
:0E2F2F0082E5833EF58374FFF0A3F00C8098DA
:012F3D002271
:103AA600EFC3940E74809480500C740E2FF582E44C
:073AB6003400F583E4F02267
:022BB200AD076D
:102BB400E4FFEDC3940E74809480400122741C2DB4
:102BC400F582E43400F583E0FC7F14FB3395E0FAEE
:102BD400C3EB9F7480F86A9840037F0022900F2310
:102BE400E0FAA3E0FBECFF3395E0FEEF7802C33399
:102BF400CE33CED8F9FF75F080EDA4249EF582E59E
:102C0400F03400F583E5822FF582E5833EF583EA0F
:102C1400F0A3EBF0900F25E0FAA3E0FB75F080ED54
:102C2400A424A0F582E5F03400F583E5822FF58233
:102C3400E5833EF583EAF0A3EBF0741C2DF582E402
:092C44003400F583E004F07F0187
:012C4D002264
:05275C00900F1FEFF0DB
:10276100E4A3F0C3EF940E7480948040037F0022B1
:10277100900F1FE0240EF582E43400F583E0FF9012
:102781000F20F07C007D143395E0FEC3EF9D748033
:10279100F86E984003022818EF7802C333CE33CE87
:1027A100D8F9FF900F1FE075F080A4249EF582E513
:1027B100F03400F583E5822FF582E5833EF583E071
:1027C100FFA3E0CF8FF0120672900F20E0FF339548
:1027D100E0FEEF7802C333CE33CED8F9FF900F1F5E
:1027E100E0FD75F080A424A0F582E5F03400F583C6
:1027F100E5822FF582E5833EF583E0FFA3E09000BB
:1028010002CF8FF0120691740E2DF582E43400F59B
:1028110083E004F07F012274FFF5F012067290004C
:0A2821000274FFF5F01206917F0229
:01282B00228A
:0517D300900F25EFF06E
:1017D800E4900F2DF0A3F0C3EF940E748094804032
:1017E80003021A5C900F25E0FDFEE42400FFEE34AE
:1017F80004900F2DF0A3EFF0ED0475F011A4FF9005
:101808000F25E075F080A4248CF582E5F03400F50E
:1018180083EFF0900F26E0FCA3E0FD75F080EEA4C6
:10182800248DF582E5F03400F583ECF0A3EDF0901B
:101838000F28E0FF900F25E0FE75F080A4248FF5B7
:1018480082E5F03400F583EFF0900F29E0FF75F0A2
:1018580080EEA42490F582E5F03400F583EFF09053
:101868000F2AE0FF75F080EEA42491F582E5F034AC
:1018780000F583EFF0900F2BE0FF75F080EEA424C5
:1018880092F582E5F03400F583EFF0900F2CE0FF3D
:1018980075F080EEA42493F582E5F03400F583EF2B
:1018A800F0900F25E075F080A4248CF9740035F0D1
:1018B800FA7B017D807C00122F3E900F25E05401B9
:1018C8006003021984900F2DE0FEA3E0FF123A296D
:1018D800900F25E075F080A4248CF9740035F0FA97
:1018E8007B01900F2DE0FEA3E0FF900F34E4F0A3FE
:1018F8007480F0123673900F2EE02480F0900F2D34
:10190800E03400F0900F25E075F080A4248CF97481
:101918000035F0FA7B01900F2DE0FEA3E0FF900F59
:1019280034E4F0A37480F0123673900F2EE0248014
:10193800F0900F2DE03400F0900F25E075F080A4B2
:10194800240CF9740135F0FA7B01900F2DE0FEA309
:10195800E0FF900F34E4F0A37480F0123673900F18
:101968002EE02480F0900F2DE03400F0900F25E059
:1019780075F080A4240CF97401021A43900F2EE02C
:101988002400F0900F2DE034FFF0E0FEA3E0FF12FA
:101998003A29900F25E075F080A4240CF9740035DD
:1019A800F0FA7B01900F2DE0FEA3E0FF900F34E4E6
:1019B800F0A37480F0123673900F2EE02480F0901C
:1019C8000F2DE03400F0900F25E075F080A4240C72
:1019D800F9740035F0FA7B01900F2DE0FEA3E0FFCB
:1019E800900F34E4F0A37480F0123673900F2EE059
:1019F8002480F0900F2DE03400F0900F25E075F072
:101A080080A4248CF9740035F0FA7B01900F2DE046
:101A1800FEA3E0FF900F34E4F0A37480F012367355
:101A2800900F2EE02480F0900F2DE03400F0900FFE
:101A380025E075F080A4248CF9740035F0FA7B0158
:101A4800900F2DE0FEA3E0FF900F34E4F0A3748024
:041A5800F0123673DF
:011A5C002267
:10214B00E4900F09F0A3F0A3F0900F09F0900F09A2
:10215B00E0FD3395E0FCC3ED940EEC64809480407D
:10216B000302227DEDFEE42400FFEE3404FEA3F017
:10217B00A3EFF0C006C007AE04ED7807C333CE3330
:10218B00CED8F9248CF974003EFA7B01900F28E429
:10219B00F0A37480F0D007D006123632900F09E00E
:1021AB00FF3395E0FEEF7807C333CE33CED8F92457
:1021BB008CF974003EFA7B017D807C00122C4EEF73
:1021CB006019900F09E0FF3395E0FE74002FF58244
:1021DB0074003EF5837401F0022274900F0BE0241F
:1021EB0080FF900F0AE03400FEC006C007900F0975
:1021FB00E0FF3395E0FEEF7807C333CE33CED8F94B
:10220B00248CF974003EFA7B01900F28E4F0A37440
:10221B0080F0D007D006123632900F09E0FF3395CD
:10222B00E0FEEF7807C333CE33CED8F9248CF974A4
:10223B00003EFA7B017D807C00122C4EEF900F0943
:10224B006015E0FF3395E0FE74002FF58274003EBD
:10225B00F5837402F08012E0FF3395E0FE74002FDB
:10226B00F58274003EF583E4F0900F09E004F00270
:02227B002158E8
:01227D00223E
:1010D700900F21EFF0A3ECF0A3EDF0A3EBF0A3EA60
:0410E700F0A3E9F099
:1010EB00E4A3F0A3F0A3F0A3F0A3F0A3F0A31207E3
:1010FB00A600000000900F311207A6000000009020
:10110B000F21E0C3940E748094804010900F24E064
:10111B00FBA3E0FAA3E0F974010211DA900F21E0CE
:10112B002400F582E43400F583E07010900F24E086
:10113B00FBA3E0FAA3E0F974020211DA900F29E4A1
:10114B00F0A37414F0E4900F27F0900F27E0FF3317
:10115B0095E0FED3900F2AE09FEE6480F8900F2964
:10116B00E0648098404BEF7802C333CE33CED8F98E
:10117B00FF900F21E075F080A424A0F582E5F034F8
:10118B0000F583E5822FF582E5833EF583E0FEA330
:10119B00E0FFBEFF14BFFF11900F27E0FE3395E079
:1011AB00900F2BF0A3CEF08008900F27E004F08077
:1011BB0099C3900F2CE09402900F2BE064809480E5
:1011CB005016900F24E0FBA3E0FAA3E0F97403128E
:1011DB0005D3E4FFFEFDFC22900F21E0FF75F080AC
:1011EB00A424A0F582E5F03400F583E0FCA3E0FD38
:1011FB00C3900F23E09D900F22E09C400302128BC3
:10120B0075F080EFA4249EF582E5F03400F583E0C1
:10121B00FCA3E0FDE41203AAC004C005C006C0078E
:10122B00900F21E075F080A424A0F582E5F0340046
:10123B00F583E0FCA3E0FDE41203AAA804A905AA28
:10124B0006AB07D007D006D005D00412028F900F43
:10125B003512079A900F24E0FBA3E0FAA3E0F9E420
:10126B001205D3900F22E0FCA3E0FDE41203AA9039
:10127B000F35E0F8A3E0F9A3E0FAA3E0FB02018647
:10128B00E4900F27F0900F27E0FF3395E0FED3900B
:10129B000F2CE09FEE6480F8900F2BE06480984059
:1012AB004BEF7802C333CE33CED8F9FF900F21E04A
:1012BB0075F080A424A0F582E5F03400F583E58277
:1012CB002FF582E5833EF583E0FEA3E0FF900F222E
:1012DB00E0FCA3E0FDD3EF9DEE9C4008900F27E0D0
:1012EB00A3F08008900F27E004F08099900F28E07E
:1012FB00FF3395E0FEEF4E700A900F2BA3E0149096
:03130B000F28F0B8
:10130E00900F28E0FDFF3395E0FEEF7802C333CE59
:10131E0033CED8F9FF900F21E0FC75F080A4249C09
:10132E00F582E5F03400F583E5822FF582E5833E04
:10133E00F583E0FBA3E0900F35CBF0A3EBF075F057
:10134E0080ECA4249AF582E5F03400F583E5822F33
:10135E00F582E5833EF583E0FFA3E0900F37CFF0F3
:10136E00A3EFF0EDFF3395E0FEEF7802C333CE33FB
:10137E00CED8F9FF75F080ECA424A0F582E5F03408
:10138E0000F583E5822FF582E5833EF583E0FBA32E
:10139E00E0900F39CBF0A3EBF075F080ECA4249E17
:1013AE00F582E5F03400F583E5822FF582E5833E84
:1013BE00F583E0FEA3E0FF900F3BEEF0A3EFF0907D
:1013CE000F37E0FCA3E0FDC3EF9DFDEE9CFCE412A5
:1013DE0003AAC004C005C006C007900F35E0FEA3E7
:1013EE00E0FFC3900F3AE09FFD900F39E09EFCE4C2
:1013FE001203AAA804A905AA06AB07D007D006D0E7
:10140E0005D00412028F900F2D12079A900F35E01F
:10141E00FCA3E0FDE41203AA900F2DE0F8A3E0F97F
:10142E00A3E0FAA3E0FB120186C004C005C006C00B
:10143E0007900F37E0FCA3E0FDE41203AAD003D01F
:0E144E0002D001D000120091900F3112079AC7
:10145C00900F24E0FBA3E0FAA3E0F9E41205D3908B
:10146C000F22E0FCA3E0FDE41203AA900F2DE0F89C
:10147C00A3E0F9A3E0FAA3E0FB120186900F31E0A0
:0D148C00F8A3E0F9A3E0FAA3E0FB1200953D
:011499002230
:033B39000238B996
:033B3C00D2AF22E3
:043B220043BA802200
:043B260053BA7F22ED
:10331F00900F09EEF0A3EFF0A3EBF0A3EAF0A3E90F
:10332F00F0C28CD2A95389FC5389FB538FFE438E75
:10333F0080900F09E0FEA3E0FBE4C39BFFE49EFE39
:10334F0074019400FDE49400FCE4FB7A01F9F81297
:10335F0006FA8F8C900F09A3E0FBE4C39BFF8F8AC3
:10336F00D28CA3E0F9A3E0FAA3E0900F5BC9F0A31E
:06337F00EAF0A3E9F022D0
:03000B000235EECD
:1035EE00C0E0C0F0C083C082C0D075D000C000C0A3
:1035FE0001C002C003C004C005C006C007900F5B27
:10360E00A3E0FAA3E0F91207D7D007D006D005D071
:10361E0004D003D002D001D000D0D0D082D083D03D
:04362E00F0D0E032C6
:102B0A00900F0912079A900F0DEBF0A3EAF0A3E9D0
:012B1A00F0CA
:102B1B00900F131207A600000000900F09E0F8A316
:102B2B00E0F9A3E0FAA3E0FB7F007E307D2A7C0076
:102B3B001206FAC3E49FFFE49EFE74019DFDE49C24
:102B4B00FC900F1312079A75AC50E4FB7A01F9F85D
:102B5B00900F13E0FCA3E0FDA3E0FEA3E0FF120641
:102B6B00FA8FD4900F13A3A3A3E0FF8FD543D10A01
:102B7B0043AF085393FC5394FC53BAFD900F0DE0F5
:102B8B00F9A3E0FAA3E0900F4EC9F0A3EAF0A3E992
:102B9B00F0900F10E0F9A3E0FAA3E0900F4BC9F00F
:062BAB00A3EAF0A3E9F02B
:012BB1002201
:03008B00023249F5
:10324900C0E0C0F0C083C082C0D075D000C000C04B
:0D32590001C002C003C004C005C006C007CC
:10326600C2AFE5AC5401601453ACFEAFAD900F4B4A
:10327600A3E0FAA3E0F5828A831207DBE5AC5402E9
:10328600600F53ACFD900F4EA3E0FAA3E0F91207CE
:03329600D7D2AFDD
:10329900D007D006D005D004D003D002D001D00089
:0B32A900D0D0D082D083D0F0D0E03233
:033B3F008FAD2225
:1038B90053B1DF53B2DF5395EF5396EF5395DF536F
:1038C90096DF5395F75396F753937F53947F43931A
:1038D900405394BF53B3EF53B41053B1EF53B210E5
:0138E90022BC
:1036B400EFFD7C007003D2B522ED64014C7003D29F
:1036C400A422ED64024C7003D2A522ED64034C7075
:1036D40003D2A322ED64044C7003D2B422ED640936
:0F36E4004C7003D28722ED640A4C7002D2C422CC
:1036F300EFFD7C007003C2B522ED64014C7003C280
:10370300A422ED64024C7003C2A322ED64034C7047
:1037130003C2A522ED64044C7003C2B422ED640914
:0F3723004C7003C28722ED640A4C7002C2C422AC
:10388600EFFD7C0064037005A2A333FF22ED640BF9
:103896004C7005A28633FF22EFFD7C00640970059B
:1038A600A28733FF22ED640A4C7005A2C433FF22BF
:0338B6007FFF226F
:100C8B00440F4700010204410F4600480F3E00008D
:060C9B0000000000000053
:103A0700439117759200123B2290FEA8743FF090E5
:103A1700FEAD7407F0123B2643A82075DE2F75BC58
:023A2700C022BB
:103A4B00EFC394047480948040057EFF7FFF22EFC8
:103A5B0025E0243EF582E4340FF583E0FEA3E0FF7E
:013A6B002238
:03002B0002354D4E
:10354D00C0E0C083C082C0D075D000C005C006C029
:10355D000753BCDFAFBDEFFEADBEEDFF900F46E0F4
:10356D0025E0243EF582E4340FF583EEF0A3EFF071
:10357D00900F46E004F0E05403F0E02447F582E4B8
:10358D00340FF583E044C0F5BCD007D006D005D08C
:08359D00D0D082D083D0E032CF
:1028EE00900F0912079A900F0DEBF0A3EAF0A3E9EF
:0128FE00F0E9
:1028FF00900F131207A600000000900F09E0F8A335
:10290F00E0F9A3E0FAA3E0FB7F007E307D2A7C0094
:10291F001206FAC3E49FFFE49EFE74019DFDE49C42
:10292F00FC900F1312079AC28E538EFE438E4053A4
:10293F0089BF5389CFE4FB7A01F9F8900F13E0FCBC
:10294F00A3E0FDA3E0FEA3E0FF1206FA8F8D900F28
:10295F0013A3A3A3E0FF8F8BC2AB538FFDD28EE5E2
:10296F0098543F4440F598D2ACD29C53A23F900F5D
:10297F000DE0F9A3E0FAA3E0900F54C9F0A3EAF039
:10298F00A3E9F0900F10E0F9A3E0FAA3E0900F5144
:08299F00C9F0A3EAF0A3E9F07E
:0129A700220D
:030023000232B4F2
:1032B400C0E0C0F0C083C082C0D075D000C000C0E0
:0D32C40001C002C003C004C005C006C00761
:1032D100C2AFE598540160145398FEAF99900F5115
:1032E100A3E0FAA3E0F5828A831207DBE598540292
:1032F100600F5398FD900F54A3E0FAA3E0F9120771
:03330100D7D2AF71
:10330400D007D006D005D004D003D002D001D0001D
:0B331400D0D0D082D083D0F0D0E032C7
:033B42008F992236
:053B120074204FF5C115
:013B1700228B
:043B1D007410F5C16A
:013B21002281
:0D3AF000E4F5C7F5C5F5C675C380F5C42221
:10363200AD07AC06C2AF75C78075F50B75C501EC59
:10364200F5C3AF058FC475C65A75C6A5E5C2120586
:10365200D30DBD00010C740129F9E43AFA900F2848
:1036620074FFF5F012065C45F070D4123AF0D2AF56
:013672002235
:103A2900AD07AC06C2AF75C78075F50B75C503EC5C
:103A3900F5C3AF058FC475C65A75C6A5123AF0D23B
:023A4900AF22AA
:10367300AD07AC06C2AF75C78075F50B75C502EC17
:10368300F5C3AF058FC412055AF5C275C65A75C680
:10369300A50DBD00010C740129F9E43AFA900F3429
:1036A30074FFF5F012065C45F070D4123AF0D2AF15
:0136B30022F4
:10008E0002044FE86480F8E933E83360110460F04D
:10009E00ED33EC337009E8FCE9FDEAFEEBFF2204D8
:1000AE0060DED3EB9FEA9EE99DE8C2E78CF0C2F7D3
:1000BE0095F0400CE8CCF8E9CDF9EACEFAEBCFFB9F
:1000CE0012041A85D0F05804700320D5B3E80470DA
:1000DE00075002B2D502045992D5EC0460F7E4CC75
:1000EE00C0E0C398F8603B94186008400DD0E0FB68
:1000FE00020431E4FBFAC9FC8028E830E406E4C9C6
:10010E00FBE4CAFCE830E305E4C9CACBFCE85407BB
:10011E006010F8C3E913F9EA13FAEB13FBEC13FCC6
:10012E00D8F130F52FC3E49CFCEF9BFFEE9AFEED69
:10013E0099FDD0E0FBEF4E4D4C701222DB03020412
:10014E0056EC2CFCEF33FFEE33FEED33FDED30E7D6
:10015E00EB020431EF2BFFEE3AFEED39FDD0E0FB62
:10016E0050130BBB0003020459ED13FDEE13FEEF0B
:08017E0013FFEC13FC02043135
:10018600EC4D6011E8497017ED33EC3304600DE473
:10019600FCFFFEFD22E933E8330470F802044F1237
:1001A600041A58046009E4CC248150062850090238
:1001B6000459284003020456C0E0EB4A7044B98053
:1001C60006D0E0FB020445EF4E701CBD8008EBFF35
:1001D600EAFEE9FD80EBE98DF0A4FEE5F002026F90
:1001E600E9CDF9EAFEEBFFEF89F0A4FCE5F0CE8954
:1001F600F0A42EFFE435F0CD89F0A42DFEE435F011
:100206008067EF4E7005BD80D780C3EF8BF0A4AC3E
:10021600F0EE8BF0A42CFCE435F0F8EF8AF0A42C79
:10022600E5F038FCE433CB8DF0A42CFCE5F03BF88C
:10023600EE8AF0A42CFCE5F038F8E433CF89F0A47C
:100246002CFCE5F038CF3400CE89F0A42FFFE5F082
:100256003EFEE433C98DF0A42EFEE5F039CD8AF0DA
:10026600A42FFFE5F03EFEE43DFD33D0E0FB500752
:100276000BBB000F020459EC2CFCEF33FFEE33FEF0
:06028600ED33FD0204311E
:10028C00020459EC5D046005E85904700302044F44
:10029C0012041A580460F6EC4860F2EC7004FDFE8F
:1002AC00FF22C860DB2481C85009C3986002500645
:1002BC000204569850CAF582E9294B4A7005AB8264
:1002CC0002044575F0007C1A7880C3EF9BEE9AED22
:1002DC0099400DC3EF9BFFEE9AFEED99FDE842F0BD
:1002EC00DC23ACF0D0E0FFD0E0FED0E0FDAB822010
:1002FC00E7101BEB60BAEC2CFCEF33FFEE33FEED9A
:10030C0033FD020431E803F830E705C0F075F00066
:10031C00EF2FFFEE33FEED33FD40B830E7C280AA7D
:10032C0074F8CC6480CCC86480C8F58204604FC378
:10033C00EB9FF5F0EA9E42F0E99D42F0E89C45F017
:10034C00603C501DE5825FFFE582D313CB5BCBF4A1
:10035C002B5582FB50280ABA002409B900200880CA
:10036C001DE5825BFBE582D313CF5FCFF4C3132F64
:10037C005582FF50090EBE00050DBD00010CC3EBEC
:10038C009FF5F0EA9E42F0E99D42F0E89C45F06052
:09039C0007CC4820E701B3EC2274
:1003A50075F020800E75F010800575F0087D007ED3
:1003B500007F003392D530D50312078CEC33401003
:1003C500EF33FFEE33FEED33FDEC33FCD5F0ED22DC
:0E03D500E5F0247EA2D513CC92E7CDCEFF2218
:1003E300EDD2E7CD33EC3392D524814006E4FFFE12
:1003F300FDFC22FCE4CFCECDCC24E0501174FF8071
:10040300EDC3CC13CCCD13CDCE13CECF13CF04700D
:07041300F030D5DE02078C7A
:10041A00E9D2E7C933E833F892D5EDD2E7CD33EC28
:07042A0033FC5002B2D522A1
:10043100EC30E7100FBF000C0EBE00080DBD00042C
:100441000BEB6014A2D5EB13FCED92E7FD2274FFD8
:10045100FCFDFEFF22E480F8A2D574FF13FC7D8031
:03046100E480EF45
:03000000022FCDFF
:0C2FCD00787FE4F6D8FD7581070230140F
:10046400E709F608DFFA8046E709F208DFFA803E7A
:1004740088828C83E709F0A3DFFA8032E309F60867
:10048400DFFA8078E309F208DFFA807088828C83CF
:10049400E309F0A3DFFA806489828A83E0A3F60883
:1004A400DFFA805889828A83E0A3F208DFFA804C5D
:1004B40080D280FA80C680D4806980F28033801034
:1004C40080A680EA809A80A880DA80E280CA80339D
:1004D40089828A83ECFAE493A3C8C582C8CCC58315
:1004E400CCF0A3C8C582C8CCC583CCDFE9DEE780E5
:1004F4000D89828A83E493A3F608DFF9ECFAA9F064
:10050400EDFB2289828A83ECFAE0A3C8C582C8CCB9
:10051400C583CCF0A3C8C582C8CCC583CCDFEADED2
:10052400E880DB89828A83E493A3F208DFF980CC34
:1005340088F0EF60010E4E60C388F0ED2402B4042D
:100544000050B9F582EB2402B4040050AF232345D4
:0605540082239004B47341
:10055A00BB010689828A83E0225002E722BBFE029F
:09056A00E32289828A83E49322D2
:10057300BB010CE58229F582E5833AF583E022503D
:1005830006E92582F8E622BBFE06E92582F8E22287
:0D059300E58229F582E5833AF583E49322A1
:1005A000BB010FF8E58229F582E5833AF583E0285F
:1005B000F0225009C58229F8E58226F622BBFE0901
:1005C000C58229F8E22582F222F8EA2583F583E93B
:0305D0009328224B
:1005D300BB010689828A83F0225002F722BBFE0107
:0205E300F32201
:1005E500F8BB010DE58229F582E5833AF583E8F04C
:1005F500225006E92582C8F622BBFE05E92582C8F8
:02060500F222DF
:10060700BC000BBE0029EF8DF084FFADF022E4CCD7
:10061700F875F008EF2FFFEE33FEEC33FCEE9DECA0
:10062700984005FCEE9DFE0FD5F0E9E4CEFD22EDE6
:10063700F8F5F0EE8420D21CFEADF075F008EF2F30
:10064700FFED33FD4007985006D5F0F222C398FD21
:050657000FD5F0EA22BE
:10065C00C5F0F8A3E028F0C5F0F8E5821582700229
:06066C001583E038F022C6
:10067200BB010A89828A83F0E5F0A3F0225006F7D3
:0F06820009A7F01922BBFE06F3E5F009F31922D0
:10069100F8BB0111E58229F582E5833AF583E8F09B
:1006A100E5F0A3F0225009E92582C8F608A6F02258
:0D06B100BBFE09E92582C8F2E5F008F2223F
:1006BE0075F008758200EF2FFFEE33FECD33CDCCF3
:1006CE0033CCC58233C5829BED9AEC99E582984076
:1006DE000CF582EE9BFEED9AFDEC99FC0FD5F0D653
:1006EE00E4CEFBE4CDFAE4CCF9A88222B800C1B97D
:1006FE000059BA002DEC8BF084CFCECDFCE5F0CBBB
:10070E00F97818EF2FFFEE33FEED33FDEC33FCEBF3
:10071E0033FB10D703994004EB99FB0FD8E5E4F9AE
:10072E00FA227818EF2FFFEE33FEED33FDEC33FC9B
:10073E00C933C910D7059BE99A4007EC9BFCE99A8F
:10074E00F90FD8E0E4C9FAE4CCFB2275F010EF2FD4
:10075E00FFEE33FEED33FDCC33CCC833C810D707D4
:10076E009BEC9AE899400AED9BFDEC9AFCE899F80F
:0E077E000FD5F0DAE4CDFBE4CCFAE4C8F922A2
:0E078C00C3E49FFFE49EFEE49DFDE49CFC227E
:0C079A00ECF0A3EDF0A3EEF0A3EFF022D2
:1007A600A8828583F0D083D0821207BD1207BD12BE
:1007B60007BD1207BDE473E493A3C583C5F0C583E3
:1007C600C8C582C8F0A3C583C5F0C583C8C582C89D
:0107D6002200
:0607D7008A838982E473AD
:102FD900023059E493A3F8E493A34003F68001F285
:102FE90008DFF48029E493A3F85407240CC8C333F9
:102FF900C4540F4420C8834004F456800146F6DFC8
:10300900E4800B01020408102040809007DDE47E73
:10301900019360BCA3FF543F30E509541FFEE493BC
:10302900A360010ECF54C025E060A840B8E493A383
:10303900FAE493A3F8E493A3C8C582C8CAC583CAAE
:10304900F0A3C8C582C8CAC583CADFE9DEE780BE66
:010CA1000052
:00000001FF
